:10000000001C0020E10200000000000000000000D1
:1000100000000000000000000000000000000000E0
:1000200000000000000000000000000000000000D0
:10003000000000000000000000000000B50100000A
:10004000E1010000FD010000B9010000CD01000048
:1000500000000000002934D00123002210B488429F
:100060002CD301242407A14204D2814202D20901E7
:100070001B01F8E7E400A14204D2814202D2490008
:100080005B00F8E7884201D3401A1A434C08A042AB
:1000900002D3001B5C0822438C08A04202D3001B41
:1000A0009C082243CC08A04202D3001BDC08224358
:1000B000002803D01B0901D00909E3E7101C10BC7C
:1000C0007047002801D00020C04307B4024802A1B5
:1000D0004018029003BDC046D90000000029F0D0AE
:1000E00003B5FFF7B9FF0EBC4243891A1847C04653
:1000F000002941D010B4041C4C40A4460123002226
:10010000002900D54942002800D5404288422CD31E
:1001100001242407A14204D2814202D209011B0119
:10012000F8E7E400A14204D2814202D249005B0018
:10013000F8E7884201D3401A1A434C08A04202D380
:10014000001B5C0822438C08A04202D3001B9C08C1
:100150002243CC08A04202D3001BDC082243002823
:1001600003D01B0901D00909E3E7101C6446002CE9
:1001700000D5404210BC7047002806D003DB0020A9
:10018000C043400801E08020000607B4024802A1F5
:100190004018029003BDC046190000000029EBD0B2
:1001A00003B5FFF7A7FF0EBC4243891A1847C046A4
:1001B0007047C046FEE70000034B01225A70A0239F
:1001C0000022DB051A7070479C0C0020034B0122B3
:1001D0009A70A0230022DB059A7070479C0C0020C7
:1001E00008B5044B01221A70034B0022DA7700F0A5
:1001F000E9FE08BD9C0C00200800005038B58025A1
:10020000ED052B79DBB2002B0BD12D490B604B6038
:100210002A89081C92B28A600C30103106F08AFEDE
:1002200042E0012B0CD1264BD96800293CD05A68FA
:100230001869824238DA501C58602B7A8B5433E0AC
:10024000022B2CD11E4CE368002B26D0226821699A
:100250008A420ADA9B5C1BBAEB60A3689A1890B2D8
:1002600006F0A6FE2368013315E0A368201C211CBC
:10027000D2180C30103106F05DFEE368002B0CD074
:10028000A16822688818A0601B7880B21BBAEB6056
:1002900006F08EFE0123236006E0EB6004E0032BF2
:1002A00002D1074B00225A60C0468023DB050122A1
:1002B0001A70C04602221A7000221A7038BDC04659
:1002C0001003002080230222DB05FF321A60042184
:1002D000024AFF31118000221A7070470600004068
:1002E000F8B5A023DB059B684C4A1F21DBB21160E7
:1002F000D12B0BD0D02B01D80133DBB2A022D205F9
:100300009168FF20814319439160F1E70023444A3B
:1003100044499A188A4204D24349C95804331160A7
:10032000F5E7424B424A191D043B934203D2002297
:100330001A600B1CF6E7EFF308823E4B191D043BD5
:100340009A4203D93C4818600B1CF7E7FFF7BAFF45
:100350003A493B48053904F0F3FA3A4C3A4D012347
:100360005B4223716371A371E3712B1C3C331A78D8
:100370002B1C3D331B7880B21B021343984245D19E
:1003800006F0C0FD314B32491888324A88420BD002
:100390006E7D18882B7D36023343984204D1138832
:1003A0009BB223711B0A637113888B421BD0EE7DB5
:1003B000A87D138836023043834214D100200423E1
:1003C000013BDBB2FF2B07D0234EEF18F65C3F79E1
:1003D000B742F5D10120F3E7002804D013889BB27F
:1003E000A3711B0AE371E278A37812021A43184B37
:1003F0008A420BD06279217912020A439A4205D0CF
:10040000E279A17912020A439A4204D1134B0222E3
:100410001A6062B6FEE701F021F9F7E72800005004
:100420000000002010030020E09C000014030020C6
:10043000980C0020E40C0020CDCDCDCD00C00000F4
:1004400000000000A00C0020C0BF0000FEB30000B0
:10045000FFFF0000BEBF000000B4000000E100E0AC
:10046000014B18607047C046A80C0020014B18686B
:100470007047C046A80C0020014B18607047C0466A
:10048000AC0C0020014B18687047C046AC0C002033
:10049000014B18687047C0460000002038B5134C67
:1004A000256804F07BFE6862256804F07BFEA86284
:1004B000256804F07BFE6861256804F07BFEE86136
:1004C000256804F0C3FEA861256804F0D3FE084B3C
:1004D00008491B68096828621878097C226841432A
:1004E00002331161E832136038BDC04600000020BD
:1004F000AC0C0020A80C002082B0F0B589B0109C94
:10050000151C0F930693029407900E1C119C04F087
:1005100095F947793A4B04978279964206D11B6840
:100520000021DA69AB00D05A03910BE01A68354B11
:1005300052691968731C896803964B43EB180133A1
:100540009B00D05A0499714349194A00A418238882
:10055000069E0193019F7318874203D8C61B029F12
:10056000BE521CE0029EB61805960027F65F0136C3
:1005700010D01F787EB2B446013601DA013703E0AD
:100580006646002E06DD013F1F7002235B4223807A
:1005900001202FE0069F79180F78002F01D12080CD
:1005A0000CE07FB27C1C05D1019E059F301A38807B
:1005B000002002E0012F01D1FF2008701978039C70
:1005C000049E079F48B274437D19002805DC029EF3
:1005D000B25E013208D0002906D12A5700203E2AF7
:1005E00008DC0131197005E02A57002A01DD0139C4
:1005F0001970002009B0F0BC08BC02B01847C04612
:1006000000000020FC020020F0B58BB000AF04F029
:1006100015F906F019FD584C6E4623689D68DB6895
:100620007D625A00111C0E319B00C9080E33C900AF
:10063000DB08DB00761AB546F61A6D4600216846DF
:10064000B546BD61FE6009F03BF8002004F0E4FE11
:100650007E6A4A4A20681568B20052420368BA604E
:10066000321C5A439100F961B107711A7960910700
:10067000891A3A62013B32D344683E6A3219261C19
:100680005E437618B400FE68920034197C61FC6900
:10069000A2420BD07C690426A418A4466C69764259
:1006A000A458B44466463460043AF0E7BE683A6A37
:1006B000A419FC617C6A7E68121B3A628919D9E729
:1006C0002F49F8697E23D2B25B4208704A708A7063
:1006D000CB7001205223BA690B7106F0B9FB06F00A
:1006E00095FA0B2845D1002004F096FE224B19689C
:1006F000224B08681C687B6AF86143439A003A629F
:100700009A07D21A3A617B61844666464A68013E7E
:10071000B446D5D3654655437E691A48B3181218B6
:100720005219BE6938695200B2182D18FE68AD0022
:1007300075199B003D603E6AB3420ED03D68E818D3
:10074000656904380668E858301A0025565F864205
:1007500000DA1080043B023AEDE7BD6876193E628C
:100760007D6A7E69761B7E617D683E6976193E6191
:10077000CBE7BD460BB0F0BDFC020020000000201E
:10078000BC030020FFFFFF7F08B502F091FA021EB4
:1007900005D10749A9230B7106F05AFBFEE7054B6B
:1007A0001B6803CB04F05CF9FFF778FE08BDC04678
:1007B000C3030020FC020020104B00221B6810B570
:1007C000191C88310A601C1C01219C344942181CE8
:1007D0002160A2600830083CE18222606283C26727
:1007E00090300160826008380183191CAC310260CE
:1007F00020390A8404330A60DA6710BD0000002043
:10080000F0B585B000AFB960386004F091FF8300A7
:100810000A33DB08DB00041C6846C01A854604F076
:100820008DFF63000833DB08DB006E46F11A8D464E
:100830006D46281C7D6004F09BFF4D4B1B68191C06
:1008400088310868632807DD0120002240420A60E1
:100850004861CA61191DCA67191C883108681A1CC9
:10086000013008320860D16F63290CDD012040425D
:100870008446181C002198306546D1678160056068
:10088000191D0120C867D16F0131D1671A1C94323C
:10089000106801280BDD012040428446181C00210D
:1008A000AA30654611601E38C58341840160116815
:1008B00001311160191C90310868012809DD0022FE
:1008C00001200A608A8340421A1C08838C3201216D
:1008D00011601A1C90321168013111600022101C45
:1008E000013C08D3A10071587D6840186100695A25
:1008F000521892B2F4E7191CAA310024A4251E193B
:10090000AC46B444FE6066463668864201D265460F
:100910002860FD689C352E68864200D928608D8845
:10092000954200D28A800D88954200D90A80043C05
:10093000251C02390835E1D11A1DD26F3E6892009C
:100940009A18111CA031983209681268BD688A1A79
:1009500032801A1C8C321268BD4652009B181A1C39
:10096000AC32A83312881B88D31A2B8005B0F0BD97
:1009700000000020F0B5234F1D1C3B68161CDA68F0
:1009800085B0019192000021041C301C08F098FEF3
:100990003B68281C1A690021920008F091FE019F13
:1009A000002F0CD0201C04F037FD174B301C1B68A7
:1009B000291C5A69DB6906F051FC013FF0E7002C65
:1009C0000FD1114B1B685F699B69029304F0D4FB44
:1009D000039004F0DBFB0299031C039A381C06F019
:1009E00051FB301C291C019A06F0AEFC002C06D1EC
:1009F000054B201C1D6804F035FEEC35286005B061
:100A0000F0BDC046FC02002000000020F0B5274DDC
:100A100087B02B680591DA6900219200039008F0F5
:100A20004FFE06F01DFB04904478002C25D00420D6
:100A300004F0F2FC286842690292029B013B019398
:100A400019D383690199039E5943C9188900711804
:100A50000439013B0DD38668029F7E439E19059F92
:100A60000136B600F2590E689446B44467460F60EA
:100A7000EEE7019AE0E7013CD7E72F687D69013D89
:100A800011D3BC69039A261C6E433619B600961919
:100A9000043E013CF3D3049B30685978FFF7DAFA3F
:100AA00000043060F4E707B0F0BDC046FC0200204F
:100AB00030B5224D85B02B681A1CCC321178583ACB
:100AC000002904D1191CB0310978002901D0002176
:100AD00011701478002C1FD0996F002001915A6B6F
:100AE00017490292DB6A01AA039303234B707C230C
:100AF0005B42CB7010230B7106F0AAF92B6800241F
:100B00009A6FD96F8A4202DC01329A6712E09C67C1
:100B100074331C7001240DE05A6BDB6A09490192A1
:100B200002930920642301AA0B71039406F090F943
:100B30002B689C67201C05B030BDC046000000201B
:100B40000C01002013010020F0B58FB004AF7960D4
:100B5000BA617B61B86006F083FA924B69461B6804
:100B600038611C68F96104346400221C0832D20820
:100B7000D200881A5A68854604325200131C083382
:100B8000DB08DB00C01A04AE854604AD281C00213A
:100B900008F096FD221C301C002108F091FD824CCB
:100BA000B86823685A69191C9B690090301D019030
:100BB000281D02902C31B86903F004F83A69F860F6
:100BC0002368127B5869191C0196029500926831BE
:100BD0002C33BA6903F066F9FB6978689D4623688F
:100BE000DA69191C1B6A00902C31786902F060FFE9
:100BF000FE680643F6B23E6106F03EFA051C06F0BA
:100C000043FD2D79012D0AD1B4300368002B06D1A4
:100C100006F01AF8012802D0281C04F03BF82568D9
:100C2000281C291C68312C3003F016F95F4A236810
:100C30001268E8660C20115E986D88420EDC0E206A
:100C4000115ED86D884209DB1020115E186E884253
:100C500004DC1221525E5B6E934221DA00233B8456
:100C600020220123D35505F0FDFF002818D105F0FF
:100C7000D5FF002814D04C4B1A68FF239168FE2939
:100C800001DC9368DBB22120C355381C02212030DF
:100C900006F07CF8464804F00BFE03F0FDFEE2E7A8
:100CA000404E4449336802241A6858680A709A68AA
:100CB000CB7848707F20834380256D4223432B43AC
:100CC000CB7053238A700B710132BB6952009A18A2
:100CD000012006F0BDF8336837491B697F204B704F
:100CE000CB787A69834323432B43CB7001206D2358
:100CF0000B7106F0ADF8336820211A682120CA551F
:100D00005968C1559A682220C255591DC97F2320B0
:100D1000C1551B6925202421CB55C35D7F218B4301
:100D200023431D430132C319B869520082181D7054
:100D3000391C0092002201202031131C06F04EF8CD
:100D400001F092FFFFF7B4FE002827D1164C23686C
:100D5000586904F007FC2368D86E04F063FB04F0C4
:100D600067F9396900290DD12368B9691A1C2C3239
:100D70001B68B86806F0EEF9236878681A68796924
:100D800006F03CFA022003F0B3FF786906F014FD88
:100D90002068703007F094FC002000E0201CBD4665
:100DA0000BB0F0BDFC02002000000020AC0C0020C5
:100DB00010270000BC0300200C010020F0B59400B7
:100DC000231C0A3385B0DB08DB006946C91A02AF71
:100DD0008D4602AA061C7A60101C0021221C08F015
:100DE0006FFC231C0833DB08DB006946C91A8D46FB
:100DF00002AD281C221C002108F062FC0C4C301CA7
:100E00002368996A5A6A683300910193291C7B68A8
:100E100007F078FC301C01F07DFF2368301C5A6A13
:100E20009B6A291C00937B6806F0E6FEBD46F7BD71
:100E30000000002070B50C1C151C1E1C07F000F9EA
:100E4000144B201C1B68596A9A6A07F0FFF9201C92
:100E500007F00AFE201C07F0F5FA321C201C291CA2
:100E600007F0ACFB201C291C02F016FE06F004F96A
:100E7000041C06F009FCA6300378002B09D1237965
:100E8000002B06D005F0E0FE012802D0012003F07F
:100E900001FF70BD0000002038B508F0F7FA051C0E
:100EA000012008F007FB041C281C03F0CDFC201CCB
:100EB00003F0D6FC38BD38B508F09CFB08F0EEFA1C
:100EC000051C002008F0F6FA041C281C03F0BCFCEA
:100ED000002004F0F1FA201C03F0C2FC03F0BCFE79
:100EE00038BD10B5A4B08C22041C002101A808F064
:100EF000E7FB01A8211C07F09DFB07F0C5FB01A83B
:100F0000211C02F00FF824B010BD000038B506F027
:100F1000BBFB294CA630236801781A79002902D13D
:100F200051B2481C04D10025DD60AA420DD116E063
:100F3000D8681A69904202DAD8680130D86001296D
:100F40000DD0DB6893420ADB01251C4900202B1CD5
:100F50000E33021C0B7105F07BFF23681D712368A3
:100F60001A79002A03D1164A1268127804E0012A7D
:100F700003D1134A126852781A60186804F074FC9E
:100F80002368051CEC33186804F092FC2D1A002D20
:100F90000BDD2368186804F067FC2368051CEC333C
:100FA000186804F085FC281A00E0012003F072FEA6
:100FB00003F092FE38BDC04600000020C3030020AD
:100FC000AC0C002008B505F03FFE002802D102203D
:100FD00004F0FAF908BD0000F0B589B0061C06F06F
:100FE0004BF8059006F050FB031CB0331A68A14B78
:100FF000002A08D1B8300268511E8A41D2B2049248
:10100000002A06D001E0012004901A680021B832BD
:1010100005E01A68B8321168FE2901DC013111605F
:101020001B6800211A1CB43211700499002904D0E5
:1010300091490968097D00295AD0181CB3300178FC
:10104000C9B2002908D003785BB2022B00D001237B
:1010500013700023037070E11D1CB0352C78002C38
:1010600009D0012414701A1CB132BC3301702970EC
:101070001170196062E10498002839D1191CBC3143
:101080000C68002C09DD013C012C01D00C602FE024
:10109000049B0B600323137050E11A1CE8321268A2
:1010A0001188764A914223D01A1CC8321188744A9A
:1010B000126852888A421BD86F4C2068427C181CE8
:1010C000B8300068904213DB07AA1180CA331B882E
:1010D0006C49538002234B70CB70049815230B711D
:1010E00005F0B6FE634B22681B68927CBC331A6025
:1010F000614C2768F87C002800D01EE104995D4D02
:10110000002900D082E02C68231CE7331B78002BD9
:1011100056D03B1C2C331B78002B51D0231C07913D
:10112000DC331B680393231CC83303981A884300DD
:101130009A533B1C2D33197804984B00F618031C66
:10114000994206D05A00B21A023A12880133801826
:10115000F6E7FEF7CDFF0790FA8B231CE0339042B1
:1011600002DA1A68013200E000221A603A1C2E32BC
:1011700012781B68934215DD42497C235B42CB7099
:1011800007AA1623012400200B714C7005F060FEA5
:101190002B6800201A1CDC32E0331060186005F068
:1011A00099FECBE03B1C2D331A780399231C013A9E
:1011B000DC33914202DA0A1C013200E000221A609C
:1011C000C4340137FB7F22689A4217DB2E49002086
:1011D0001223021C0B7105F03BFE2A682648131CE3
:1011E000C03319680068013119600230C07F814244
:1011F00004DB00211960B432022313702A68002333
:10120000111CB231C4320B70136047E02B681A1CFA
:10121000BC3210602A321278002A3FD0191CC83123
:10122000098807AA1180CA331B88164953800223F4
:101230004B70CB7019230B7105F00AFE2B682268E6
:10124000191CC8310C88D08B163984421ED2181C48
:10125000CA300488508D844218D2097800291DD1E3
:10126000C43301321968D27F914217DA0131196013
:1012700014E0C04600000020A80C0020FFFF000082
:10128000AC0C00200C010020C303002001220A70D6
:10129000191C0022C431C0330A601A60294D2B6822
:1012A0001A1CE6321278002A47D105980279002AE2
:1012B00041D01A1CB0321478002C3ED1224ED86A8C
:1012C0003768798BBA8BFB8A3F8B009705F08CFED1
:1012D00036682B68718CB28C071CD86AF38C368DFB
:1012E000009605F081FE2B681A1CC8321188CA339B
:1012F000B94202DA1A88824210DB07AA11801B88E1
:101300001249538002234B70CB70002017230B71BE
:1013100005F09EFD2B680122B1331A702B681A1C50
:10132000B1321278002A08D00499002905D0B033D0
:1013300001221A7002E0B1331A700124201C09B096
:10134000F0BDC04600000020A80C00200C010020C9
:10135000F0B591B002AF03F071FA061C03F086FA03
:10136000386103F077FAB04BB8601C686846E368F0
:1013700000211A1C0E32D208D200801A226985463A
:101380000E32D208D200801A02AD8546FD6102AD50
:101390007D6272799A18131C0E33DB08DB00C01AC9
:1013A00053000E33DB08DB008546C01A02AD8546CC
:1013B000C01ABD6102AD854602A87861B86908F01F
:1013C0007FF9E1687279281C5218012152004942C4
:1013D00008F076F9E36872799449D2185200786976
:1013E00008F06EF9E2683969F8693D6308F026F99A
:1013F00039692269BA31FF31786A4024002508F042
:101400001DF9FC603D62796AF86905F09DF80320DA
:1014100004F002F8844D86492B68864C5A68186897
:101420004A709A680423CB7051230B7123688A7029
:101430005B690132920008709A18022005F008FDDD
:101440002B687D491B6904254B705A230B71236857
:101450000220DA69CD7005F0FBFCB479013C631C15
:101460002CD07579013D6A1CF8D073797869634393
:10147000EB185B001A5A714B9A42F3D0B9693022CB
:101480007960F9627863D219694609CA09C1211CD9
:101490007B68F8692A1CFFF72FF8002803D03B6A05
:1014A00001339BB23B627379BA6963433869EB18C5
:1014B000D15CC25C8A18F969CA54D3E7F479013C5B
:1014C000601C2FD0B17973797D694B43E3185B00C1
:1014D0005A5B5A4B9A42F2D0BD6930207D60FD6262
:1014E000C0197D6984467D636846624628CA28C063
:1014F000221C7B68786AFEF7FFFF002803D03B6A56
:1015000001339BB23B627379B279BD695A432B199F
:101510003D699A5C2919BA31FF310B787D6AD3187D
:101520002B55CCE7404B3C6A1B68DA681B69D31823
:101530009C4206DAFB68013BDBB2FB60002B00D06B
:1015400061E73B4CB3797F2523707379802063700A
:10155000A370E3784042AB4301252B430343E37080
:101560000820D223211CFA69237105F071FC32494D
:10157000F3797F224B70CB78082093431D4380235F
:101580005B421D437A6AD323CD700B7105F060FC7A
:10159000B379251C013B0FD37279013AFAD37179E3
:1015A000FC69594389186118BC68E01864300C78EC
:1015B000007820180870F0E7F379013B08D3BC6885
:1015C000E2187C6A7C321178E25C8A18E254F4E713
:1015D000F869796A04F0B8FFB3797F202B707379CA
:1015E00001216B70AB70EB78802483430B43644222
:1015F0002343EB70291C1D23FA6908202B7105F089
:1016000027FC0D49F3797F224B70CB78012593435A
:101610001D432C431E2308207A6ACC700B7105F001
:1016200017FCBD460FB0F0BDFC020020FFFF00001C
:10163000BC030020000000200C010020FEFF000081
:1016400008B503F007F958300378002B02D1FFF7F3
:101650007FFE01E004F0D6F808BD0000F0B591B0BF
:1016600002AF05F0D3FA041C07F05AFF07F088FF19
:1016700001F0F6FAFFF788F805F0C8FA061E052E05
:1016800000D1BDE0052813D8022800D17EE005D89E
:10169000002823D001286CD0341CEDE7032800D1AA
:1016A000A0E00428F8D105F005FB01F011F9A2E053
:1016B000092800D1C1E007D8072800D1A9E00828EF
:1016C000EAD105F0F7FAAEE00B2800D18BE100D2A9
:1016D000C5E00C28E0D105F0EDFA8DE105F0B4FA93
:1016E000002812D00128D7D1C64D02222B681969D3
:1016F000186AB961C449F8611A621E61301C3F233F
:10170000321C0B7105F0A4FB22E00125012D02D053
:10171000022D0AD00FE0002000F07AF903F0A8FCB7
:10172000C0B205F0E3FBFFF78BFF0020211C021C79
:1017300000F01EFE051C05F087FA0028ACD105F06C
:1017400065FA0028E2D0A7E705F060FA00280AD180
:10175000FFF776FF211C0122002000F0DBFE05F0E0
:1017600073FA0128F0D02B68FC691C62BC691C610B
:1017700092E705F09FFA05F049FA0128FBD007F03F
:10178000ADFEFFF701F805F031F985E7FFF784FBBF
:1017900005F002FA002003F08FFE03F057FEFEF77B
:1017A0007DFEFFF74DFF05F085FA05F08DFA042860
:1017B0000CD004D800280ED001F08CF80BE00528DE
:1017C00007D0062807D103F047FA04E004F04CFFE5
:1017D00001E003F02FFA05F019FA0228E5D0FFF72F
:1017E0006AFB59E705F066FAFFF72AFF05F00EFAE3
:1017F0000328FBD050E705F009FA0428FBD04BE79B
:1018000005F058FA03F042FF05F000FA0528FBD076
:1018100042E705F04FFA012000F0FAF805F0F6F97A
:101820000728FBD038E7002003F0F6FD03F052FE56
:1018300005F0ECF90828F6D02EE705F03BFA002079
:1018400003F000F9002003F0E7FD03F043FE05F08C
:10185000DDF90928F6D0012003F0F4F81CE76C4606
:1018600000203C6107F0C0FE07F08AFE002003F074
:1018700023FE644C694623685D6818681B6945430C
:10188000EB180733DB08DB00C91A8D4602AAFA61A0
:1018900002F0D4FF02F0EAFF02F0DCFFFB695D1901
:1018A000181C291C7D6103F07BFF23686C465A6875
:1018B0001B69D3189B000A33DB08DB00E41AA5463A
:1018C00002ACBC6105F0F6F94E4C20202368196883
:1018D0001A79C15521202221C255CA555A1DD27FDD
:1018E0001B6923202421C255CB5525220123D35522
:1018F000FB690022391C00930420131C203105F0E1
:101900006DFA7969F86904F01FFE002003F084FD88
:1019100023683E485C6805687C60002139603A684D
:101920007C68A24208DA3A68A96992008958BC69C1
:10193000A15039680131F1E7A200BC691969A41806
:1019400005683960A44600223868824206DA296AAE
:1019500090000958644621500132F5E71A682821A1
:10196000CA5578689A6829242A21E055CA55053352
:10197000DB7F2B24E35504242D233968DC55234BCE
:1019800001321B6892005B692C209A18C1550092A5
:10199000391C0022131C0220283105F01FFA0123F4
:1019A0003020C355174B31211B6832201A79CA5594
:1019B000C2555A1DD27F1B693321CA553422D355D3
:1019C0003523DC55BC690022391C10203031131C32
:1019D000009405F003FA05F019F90A2800D173E71D
:1019E0003C69A54658E605F065F9FEF70DFE05F0E1
:1019F0000DF90B28F9D04FE605F008F90C28FBD0BB
:101A00004AE6C046FC020020C3030020000000207C
:101A1000F0B5D24C9BB0236800AF9B6878617B62C5
:101A20005B0001333B6503F017FB2368FF229B68D3
:101A3000F865D31A984200DDFB65F86D7C6A041BDB
:101A40003C626C4603F00EFBFC643C6D684665002E
:101A50002B1C0833DB08C24CDB00C01A0123637067
:101A60007C235B423A1C8546E370211CB123002095
:101A70005C3223716E4605F0EBF90023211C3C6DAE
:101A8000A34205DA3C6A5A001819B0520133F6E74E
:101A9000E4B24C70FC610024321C0223201CCB7089
:101AA0000C7105F0D5F92B1CF86C08338546DB0862
:101AB000DB006946C91A8D46C91A68468D46B96366
:101AC000386403F035FE3861012003F073F9211CFE
:101AD0002A1CB86B07F0F4FD211C2A1C386C07F097
:101AE000EFFD3B6D68469B00BB610A33DB08DB0002
:101AF000C01A396985466A46C01A89007A638546E4
:101B00003863B960FC640021BA69786B07F0D8FDCE
:101B1000386BFF21BA6907F0D3FD00248F4B7C6539
:101B20001B687C6D5B689C424ADA3C6A0026E4B222
:101B3000201CFC6303F0A1FA03F06EFA03F030F905
:101B40003C6B7D6B386D0136F217C30F86425341F3
:101B5000DBB2FB62002B06D1F96B8819C0B203F02F
:101B60008CFA03F059FA6B46FB60BB686A460A338D
:101B7000DB08DB00D01A85466A46BA6403F0DEFD56
:101B800000231A1C39698A4205DAB86C9100415861
:101B900001325B18F6E72A68934200D92B6020686F
:101BA000834200D22360F968FA6A8D460434043512
:101BB000002A02D103F0F4F8C4E77C6D0134ADE7EC
:101BC0000024684D7C653B6D9C4217DA796B3A6B5B
:101BD000A300C858D358C01A854204DD3B6A051CCF
:101BE000E318BB627C64796D814200DA786503F0AA
:101BF000CBF83A6C6300D0520134E4E7786D03F01F
:101C0000C3F8564B1B685B88984206DA7C69012C46
:101C100003D0FC6DBC627C6A7C64534D00262C684A
:101C20003222231DDE670433DA67803364221A60B0
:101C3000796C01220220DA603A6B81408A58986000
:101C40005E60101C7A60F96303F09EF89834FB6BB9
:101C5000796B206058582C6803F096F82B68A034F4
:101C600020601A1C01217C69AA324942AE331180DE
:101C70001E80012C22D1BA6B331C3C6DA34209DAC1
:101C80003C6C5900615A1088884200D2118001339F
:101C90000232F2E77C6C6300BC6B1A5BFC6C131CB9
:101CA000A24200D2231C2E499BB2FC69FB64002097
:101CB00002234C70CB700871BA6B0CE0786D03F0A6
:101CC00063F8274980B2FC69F8643A6C0220C87056
:101CD0004C700E71301C05F0BBF87C6C6021CC534D
:101CE000BC6A6220C453786C396C44000C19238898
:101CF000F86C64221A49D3536623D85304234B70DB
:101D00003A1C0223CB706032B22300200B7105F025
:101D10009FF82388144C2268111CE831096809884F
:101D2000994225D207F066FC051C07F0CBFB03782F
:101D3000061C002B07D0012005F0CCF823680236E2
:101D4000E8331E6025E0002D23D1084B1B68DB7CA7
:101D5000002B1ED1012005F0B1F81AE0AC0C0020D8
:101D60000C010020FFFFFF7F00000020A80C0020D6
:101D7000E7321278002A0CD00E4D29684A889A4220
:101D800007D9002005F0A6F823682A68E833023254
:101D90001A607C69002C06D1BC6AE0B203F06DF9D0
:101DA000BD461BB0F0BD04F031FF072800D1AAE604
:101DB000F2E7C046AC0C0020F0B585B0009203916C
:101DC000029007F017FC061C04F05CFF071C04F0EF
:101DD00061FF734D01902B681A1CE4321278BA42ED
:101DE00020D0002F08D06F4900203B23021C0B712C
:101DF000022605F02DF810E001993C1C00290DD1B8
:101E000068493C23381C3A1C0B7105F021F82B68FB
:101E1000E6331E78731E9E41F6B201242B68E4332C
:101E20001F701DE01A1CE532127801998A4216D003
:101E3000002906D1E6331E78731E9E41F6B23A237E
:101E400001E03923022657490020021C0B7104F0DF
:101E5000FFFF2B68019AE5331A70012400E000248B
:101E600004F0E4FE071C04F005FF009B032B02D0E6
:101E7000002F03D107E00124002F36D0002004F00A
:101E8000DDFE012431E02B68E4331F88002F2CD1C4
:101E90000099012902D0022904D00EE0009805F033
:101EA0000DF80AE0381C05F009F82B68E7331B78B9
:101EB000002B02D0381C05F00DF804F0F9FF2B6858
:101EC000071CE6331B7883420FD0002802D0112371
:101ED000012601E01223061C32490020021C0B716E
:101EE00004F0B6FF2B68E6331F7007F083FBB042A7
:101EF00039D007F07FFB07F0D1FA071C301C07F040
:101F0000CDFA009007F076FB301C07F06DFB07F070
:101F100037FB254B1B681B7D002B10D0012C0ED0EE
:101F2000009B3A1C5B325B330399029805F0D0F9B1
:101F3000002003F071FA0024FEF73EFC06E02B6857
:101F40000020CC33187003F0B7FA0124002004F00D
:101F5000C1FF2B6800211A1CE7321170134AE833C5
:101F6000126802321A6007F045FB07F0ABFA0378FB
:101F7000002B08D004F0A8FF2B68E7331A788242C0
:101F800001D01870012404F08DFE051C05F07CFBC7
:101F90000379AB4200D00571201C05B0F0BDC046EE
:101FA00000000020C3030020A80C0020AC0C00207F
:101FB000F7B5434C151C236801911A1CB1321278F5
:101FC000061C002A23D01A1CE6321278002A1ED1E1
:101FD0001A1CCC321178002919D1B0331B78002B90
:101FE00015D10123137002F035FC071C02F026FC0A
:101FF0003A1C031C5B324533301C019905F068F92B
:1020000003F0D6F9022003F0DFF9FEF7D5FB2368D1
:102010001A1CCC321278002A4FD01A1C294F0020EB
:10202000B03210703A680190126A011C013A0ED366
:102030000E265643B446AC446646B688002EF5D00C
:1020400036B20131B042F1DA301C0192EEE71A1CCF
:10205000E6321278002A13D1012911DD05F014FBB4
:102060000123B03003603B681B6A013B0AD3019E29
:10207000B342FAD00E225A430021AA189180F4E705
:10208000002904D023680022D4331A6008E01A1C07
:10209000D432D03311681B68994201DC01311160E0
:1020A0002368191C1A1CD431D03209681268914275
:1020B00005DDB03301221A7001E0D4331A60F7BD98
:1020C00000000020FC020020F0B5A14C91B002AF4E
:1020D000FA612268FB60136892689D1C52005543A8
:1020E0007960694639605208291C0133534308312D
:1020F000C908984EB860C9006846401A8546013341
:10210000306802A95B00CB18B9613C2200212C3059
:102110007B6107F0D5FA2A1C0021B86907F0D0FAD4
:102120008D490020A623021C0B7104F091FEFEF7DE
:10213000EDFE3168081CC830CA31FEF761FB236828
:10214000864D5B6804226B705B232B713368EA70E9
:10215000291C9A69022004F07BFE2368291C1B6954
:1021600002206B700423EB706C232B713368002505
:102170001A6A04F06DFE336879491A1CC832128855
:10218000CA33FA621B883A1C3B630C2001232C32B1
:102190000B717D6304F05CFE2368242019682522FE
:1021A000C15558682621D0559A682720CA55591D0F
:1021B000C97F1B69C1552821CB5504202923D85537
:1021C000336801325B6992009A18391C0092022030
:1021D00024312A1C2B1C04F001FEB8687968BA6906
:1021E0007B69FEF7B1FCB861A84200D08DE026689B
:1021F0006A46F36A3A611A01131C08336946C81A21
:10220000854602ADB969281C07F05AFAF26A281C03
:10221000F969FEF7D3FD236869469A6A0E235A438B
:10222000131C0833DB08DB00C91A8D4602ACB96900
:10223000201C07F045FAFB68281C211CFA69FEF7F0
:10224000F9FD386DFEF7C8FE464B1B681B7D002B61
:1022500004D1B8687968221CFFF7AAFE201CF9692E
:1022600001F00EF8201CF96900F05CFE06F07CFD20
:1022700083000733DB08DB006A46D21A954602ABBF
:10228000FB60334B061C1D680E22A86A7E61031C8E
:10229000013B5343E418F8610434F8690138F861EC
:1022A0000FD30021635E002B09DD7A69FB68013AD8
:1022B00090007A611818211D042207F0BFF90E3C26
:1022C000EBE72A682C21CA5568682D23D855AB68DE
:1022D0002E21CB550535EA7F2F20C2553021002213
:1022E000CA551C49013309687E22896A5B00CB18F4
:1022F00052423120C255391C00932C31F2B20320D6
:10230000FB6804F06BFD39698D463A68954602F02A
:102310002DFF03F04DF802F015FD012003F07CF8CD
:1023200002F050FE0B4BB4221B68B8689A567968CD
:10233000FFF742FD002800D1B8690B4B1A680B4B20
:102340009A4202D003F0A2F9FEE7BD460FB0F0BDFD
:10235000FC02002000000020C30300200C0100202C
:1023600013010020A80C0020E00C0020CDCDCDCD25
:10237000F0B5494C8BB0236802AF1D68B96059684D
:102380007A604D430A229A622822DA621B696A4601
:10239000EB189B000A33DB08DB00D21A954602AB30
:1023A000F860BB6105F076F9236869469C6AAD0068
:1023B000E200131C0833C91A8D4602ABA400FB616E
:1023C000231C0833DB08DB00C91A8D4602A93961DA
:1023D000F869002107F074F9221C0021386907F020
:1023E0006FF92E4E002433686946F0331C702C4B75
:1023F0001B682D331A785200131C0833DB08DB00EE
:10240000C91A8D4602AB181C211C7B6107F058F9D4
:1024100004F026FEB969BA694D192B1C4178201CBD
:10242000FEF7A8FABA68FB689A4201D004F042FCB1
:1024300033689C6004F054FD041C02F019FEA042B5
:1024400004D0201C02F019FE02241DE079690091DD
:10245000FA69291C3B69B869FFF736FE0F4B114A30
:102460001B68041C9968914202D09A6801329A60F4
:10247000002809D104F0E8FB7A68904204D104F006
:10248000C5FBFB689842D5D0F869FEF72AFD201CF1
:10249000BD4609B0F0BDC046FC020020000000208F
:1024A000A80C0020FFFFFF7F184BF0B51B6885B01C
:1024B0001E689B68B41C5B005C4300AF221C5B0879
:1024C000FB600832124BD208B86079601868D200FD
:1024D0006946891A8D463C2200212C3007F0F0F81D
:1024E000221C6846002107F0EBF8FA68731C53437E
:1024F00001336D465B006A46EB18B8687968FEF7F1
:1025000023FBBD46C0B205B0F0BDC046FC020020B2
:1025100000000020F0B5B54EE9B0336802AF1D6889
:10252000F961596805244D437A6002229A62DC629F
:102530001B69B860EB1893400A33DB08DB006A467E
:10254000D21A954602ABBB6102F096F905F0A2F8EB
:10255000381C00211022483007F0B2F80023BB637A
:10256000FB63336869469A695B69AD0053439B001E
:102570000A33DB08DB00C91A8D463B1C02AA58331C
:102580007A613B6404F06CFD061C03F051FBBB69EF
:10259000201C5D193D611A1C71782B1CFEF7EAF9AD
:1025A00003F054FE924C786923685969FEF72EFABD
:1025B000F969BA68914201D004F07CFB8D49002092
:1025C000A223021C0B7104F043FC236800249C60CE
:1025D000FC617C6204F084FC386202F049FD3B6AD5
:1025E000984204D0181C02F048FD02265FE1002C3E
:1025F00072D17E4B6A461B68FA609A6951005A692B
:1026000001324A43131C0833DB08DB006946C91A50
:102610008D4602AE301C211C07F052F87A6A744DC8
:10262000082A08D103F012FE2B6878695969FEF771
:10263000EDF97C624CE0042002F0EEFE2B68301CC9
:1026400059697A6904F0DCFE051E012D0FD103F0F3
:10265000EFFA052002F0E0FE6649A323201C221CAD
:102660000B7104F0F5FB00232C1C7B6230E0624D03
:10267000311C2B68786933331A7804F085FF2B6896
:10268000F96933331B785B0099420ADD03F0D0FA15
:1026900005200121BA693B69FEF76CF903F0D6FD0C
:1026A000FC61FA692B680132FA613233187802F062
:1026B000E4FC02F0F9FC2B683333187802F0F6FAE8
:1026C000002002F015FB386A02F0D7FC02F010FD82
:1026D000FB6800269D46D4E0474B01241B68343339
:1026E0001878434B1B68186002F0E0FA052002F0EE
:1026F0006BFEB8693969FFF7D7FE061E00D0C0E04F
:102700003A4D6A462C68FA60E36A69461A01131C5E
:102710000833C91A8D4602AB181C311C3B6206F007
:10272000CFFF391CE26A386A4831FEF747FB2B6855
:1027300069469A6A0E235A43131C0833DB08DB00F0
:10274000C91A8D4602AD311C281C06F0B9FF3A1C8F
:102750003B1C48323833386A291CFEF76BFBA91C36
:10276000281C06F027FA281C291C0E30103106F010
:1027700021FA391C281C40317A6A06F01DFB786268
:10278000032803D0072839D1182405E0381C40302D
:1027900006F0CCFD041E23D004F05EFA164B1B6835
:1027A0009B6B18400123A340034227D02C23022116
:1027B0002D22D819D955D45504F0E8FA02F0F8FDC5
:1027C000012002F067FA0B490020A223021C0B71C2
:1027D00004F03EFB03F03AFD082300247B624EE048
:1027E00002F0E6FD012402F0C1FC48E0FC020020FA
:1027F00000000020C3030020A80C0020796A0829EB
:10280000EED10225381C2A1C2D492C3006F016FF6B
:10281000381C291C2C3004F0B9FA052004F0D8FA31
:102820004422D35D3021CB5500243321CC553122B5
:1028300035213223D555DD553422CB5DD4557F2249
:1028400093431D4380235B421D433B1CCA195833ED
:10285000391C303115700520221C0093231C04F014
:10286000BDFA02F0A5FD012002F014FA1549A223D9
:10287000201C221C0B7104F0EBFA03F0E7FCF96852
:102880008D46114B114A1B689968914202D09A6893
:1028900001329A60002E0AD104F0D6F97A6890428B
:1028A00005D104F0B3F9BB68984200D192E602F07A
:1028B0007FFD03F0BDF9301CBD4667B0F0BDC046DA
:1028C0005C970000C303002000000020FFFFFF7F93
:1028D00070470000F0B5CC4D99B02B6800AF5C6834
:1028E000F8641868BC636043021951000831C908D4
:1028F0006600C9006C46641A91000A31BE647863B0
:10290000A546FC624600C908201CBC6BC900073202
:10291000401AA400D2083C63D200441A8546786469
:10292000A01AA5468546DA68BC6200216C463C6266
:1029300006F0C6FE2B68786B1A690021684406F021
:10294000BFFE2B680021DA68786C920006F0B8FEB2
:102950002B68786B1A69796C840092000819002141
:1029600006F0AEFE2B68A949DA68B86A920006F054
:10297000A7FE2B68BA6AA54910191A69920006F0D9
:102980009FFEFDF773FDFD6C022D05D0032D05D0D4
:102990002F30012D05D102E0303000E031300078D9
:1029A000F8633D6BAD08FD61BD6C6D08BD61FD6BED
:1029B000013D3D637D6C2D197D6275083D61FD6AA9
:1029C000AE19FE60BE6A34197C613D6B8E4C0135D8
:1029D00000D1AAE0002002F01FFD25688C4B6C6836
:1029E0001E68013C5DD3A0002B68B860591EB96415
:1029F000F7D3A96872694B43E31801339B009858D9
:102A0000FB6C022B0AD0032B22D0012B47D1B169DA
:102A1000BA688B58C01AC343DB171840B96CFB69FE
:102A20007A6C4B43E3189B009A58796C80183A6B88
:102A30005850002A33D1B96CBB694B43E3185B0093
:102A4000F96B3B64FDF706FB3A6CFB6AD05226E05B
:102A5000B96CFA694A43A31899007B6CC958031EE4
:102A60008B4200D20B1C796CA21892005350B96AA9
:102A70005258904200D9101CB96CFA694A43B96A9D
:102A8000A21892005050181A7F22FD2801D8400841
:102A9000C2B23B6AB86C1919BB6B4343CA54BB6CD6
:102AA000A4E72E695A4B741E1D68A400013E38D35A
:102AB000EA69FB6C1059022B09D0032B16D0012BAD
:102AC0002DD1296A0B59C01AC343DB1718407A6A03
:102AD0007B6A1259396B8018185100291FD1F96B84
:102AE000FDF7B8FAFA687300D05218E07B6A1A59F9
:102AF000031E934200D2131C796A0B5179690A595B
:102B0000904200D9101C7A691051181A7F22FD28B2
:102B100001D84008C2B2386A796B43189A55043C10
:102B2000C4E73C6B013C3C634FE7FE6AFD6CBE644E
:102B3000022D06D0032D61D0012D6DD100F0B4F827
:102B40006AE001F07BFE381C32491022503006F05A
:102B500075FD02F083FE21682D4B0E68F863BD6998
:102B60001868331C013B5D43FE6484467D64FE6C43
:102B7000013EFE6422D34B687E6CFD6AF018400073
:102B80005E002818BE630022023A013B11D3FD6BA0
:102B9000BE6B6D003D646546AD69B6187E63760018
:102BA00076593D6C5035ED5BAE1B855A75198552D3
:102BB000EAE77E6CBD69761B7E64D8E70B693E69E7
:102BC000134AF118FE6A4900580015687118F86434
:102BD0000022023A013B0ED3FE6CB0182E6A400070
:102BE00080598E5A361AB446FE6B70005030C05B66
:102BF00060448852EDE700F058F80DE03D6ABD648E
:102C000000F054F8012308E0FC020020FFFF000060
:102C1000000000205E970000022322685026106802
:102C20005124F05511795225E155E955511DC97FBF
:102C30005326F155126954205521C255CA5D7F2192
:102C40008A43134380225242381C1343503055228A
:102C5000B96CD35504F040F8BD4619B0F0BDC0467C
:102C600008B503F02FFF08BD0D4B70B51A68101C96
:102C7000D36A74300478002B03DD516B5B18D90FD5
:102C80000BE000218B4208D10649526B09681426DB
:102C90008D5F0121AA4200DB191C2143017070BD28
:102CA00000000020AC0C0020704770477047000007
:102CB00008B502F0CBFB01F0FFFE01F099FE01F038
:102CC0004DFE0F4B1B681A7A0E4B1B689433002A7B
:102CD00001D0022200E003220B491A6000230B708E
:102CE0000A49A0220B700A49D2050B709363D36B7B
:102CF0003F218B43D36362B603F0D4F908BDC046CD
:102D0000B80C0020040100202900005028000050C9
:102D10002A00005038B5041CFDF7BAFB051C04F06E
:102D20009DFC291CF0310B78002B24D0124B002283
:102D30001B68DB6A013B07D3180120180825405F98
:102D40000028F7D10122F5E70C4B1B68D86A002850
:102D500011D15D6B002D0ED1F433002A0AD01A6810
:102D6000FE2A01DC01321A601B68052B03DD0023FB
:102D70000B7000E01A6038BDFC020020000000204B
:102D800070B5051C0C1C161C03F0C8FF002802D0EF
:102D900001280AD023E00E204643AD19EA88FF231C
:102DA000FE2A00D8D3B2637119E00E2070432818B0
:102DB000C288FF23FE2A00D8D3B263710B220A23F4
:102DC0008256C3560921D31A0822415682568A1ABE
:102DD000934202DDA371E27101E0A271E37170BD63
:102DE000F7B5041C03F05EFF012841D16378A17898
:102DF0001A07120D89181B09E2781B020091D318DB
:102E000000251C49009E685A32B2061C22369642A2
:102E10002BDB443E964228DC78316F5A1EB2391CB7
:102E20002231B14221DB4439B1421EDC400080181E
:102E30000321FDF75DF97F0082B201900321B819EB
:102E40000092FDF755F9009E0F2237B2667883B2E3
:102E50003F121740964319B23E430912324009010E
:102E6000019E11436170A670E0700235782DC8D1C3
:102E7000F7BDC046F09B0000F7B5019003F012FFCC
:102E8000012848D1244B1B681D6A013DEDB2FF2D7E
:102E900026D00E246C4301990C190422A35E002B4A
:102EA000F3DD1E4EE08833681A1C1969143224338E
:102EB00004F0ABF80421635E071C00933368E088DC
:102EC0001A1C19691432243304F09FF8009A0A3747
:102ED000101AC3179B0F181880103F18A780D4E74B
:102EE0000F4A0D4B14681B680C4A1B7C1568013B8C
:102EF000DBB2FF2B0FD05A00A21886320021505EA1
:102F00000028F4DD291C3D310978401A40104900A1
:102F100041181180EBE7F7BDFC020020D00C002027
:102F200004030020F0B5C54B8DB01B6805909E686A
:102F30009F690796DE68019103961E6906965E6991
:102F40000296FFF799FFBE4CFA2223681201D86A55
:102F5000904203DCFC331B68092B05DD05980199C1
:102F600005F068FB05F090FB03F0DEFE2368012608
:102F7000E4331B780496002B5ED00020019E059C54
:102F80000490051CAF4B1B681B6A9D4254DA3388C2
:102F900009A803800122738801995242438005F0F9
:102FA00037FE0421635E002B42DD23886A461384CA
:102FB00063880199538408A82A1C05F029FE6946F4
:102FC0002023CB5E079A9A420BDA0398984208DDD9
:102FD000694622228A5E0698904202DA029991425C
:102FE00021DC0420325E002A1ADD974A1268521949
:102FF0004032127852B2012A12DD0799CA1B9A4256
:103000000EDA0398C2199A420ADD6946069822230D
:10301000CB5EC21B9A4203DA0299CA199A4205DCB6
:103020000023A38004E00122049201E00123049321
:10303000013508360E34A5E70126059C019D029650
:10304000804B029F1B68013F186A874200DBBDE08E
:103050002B8809AE338001226B88301C01995242C3
:10306000738005F0D5FD0420235E002B00DC84E096
:10307000238869460B84638808A84B843A1C01990D
:1030800005F0C6FD6B461B8C694603936E4B30887A
:103090001B684A8CDB19783319796C4B8446768827
:1030A0001B68002901D14C3300E04D330420295E18
:1030B0001B78002911DD36B211B2891BCE17891990
:1030C0007140994209DA0398664601B230B2091A92
:1030D000C8170918414099426ADB049E002E67D048
:1030E0000AAE3378802149421943DF200140207B1A
:1030F0000123184040231943102399438C46029919
:103100000F23194006910001614608430699984330
:10311000014331700399F27008B27178001299433B
:103120008C4611B209120901069118406146084304
:10313000069903401943039B301CB3707170FFF76D
:103140004FFEA288131C12B2FF2A00DDFF233A1C97
:10315000311C05983371FFF713FE301C03F0EEFDB0
:10316000394B0426AA5F1B68DF197837002A01DD76
:10317000012300E000233B711AE004202B5E002BAA
:1031800016DD0AA80023029A43600F231A4040214B
:103190000A4302700127F75772883188F6783B405E
:1031A00076B236011E4346708170C27003F0C6FDD0
:1031B000A388029EAB80238801362B806388029609
:1031C0006B80E3880E34EB80083539E71B690F25E7
:1031D0005C1E1D401C4E621C3AD031686700CB1942
:1031E0001A1C90320020125E8633002A0FDC1B88E6
:1031F0001AB2002A16DD00210AA80A914160802136
:1032000029430170FF2A00DDFF23037108E000213C
:103210005B5E002B06DC0AA800230A93436005705E
:1032200003F08CFD3368013CDF193B1C86373A887C
:1032300090331A80013D0F23CBE7C046D40C002009
:1032400000000020FC02002004030020D00C00201D
:10325000336801201A1CB03211680832002902D1EB
:103260001068441EA0411C1CA63420701268181C53
:10327000B430BC3301601A6003F074FD0DB0F0BDD2
:1032800070B5124B051C1B680C1CEA331B78002B15
:103290001BD00F4A1368161C191CB4310968002989
:1032A00005DDBC331B68002B01D105F0EDF9336857
:1032B0001A1CBC321268002A07DDB4331B68002BCD
:1032C00003D1281C211C05F0B5F970BDD40C0020D9
:1032D00004030020F0B591B00D91079003F0CCFEEF
:1032E000D34B01211B680E201A1C5A321278079CFE
:1032F00091401A1C5B3212785C33891A1A780025C7
:103300008B1ADBB20E93CB4B09951B6808950B9378
:10331000C0330C93C84B1B681A6A5043111C231806
:103320000E3B01390BD3DC88099EA64200DA0994D2
:103330000427DC5F089DA542F2DA0894F0E7079EB7
:10334000013A3018083806920490069F013700D1E0
:10335000B7E0049F023F00203B5E0597002B00D1A1
:10336000A8E0B34E049C336820881A1C4E321969B9
:10337000157824333A3A03F048FE041CFDF788F828
:10338000F0300378002B05D0336835331B789C422E
:1033900000DA1C1C33681A1C4F321278002A01D143
:1033A000642245E02A1C0B9D7535FF3528780028DE
:1033B0001CD1059F64210026BE5F171C7143674323
:1033C0008C460B996D31FF31BC450DDDA6420BDCFF
:1033D0009A4F0E683F6801360E60DA373F78BE427A
:1033E00004D101262E7000E0002008600B98753093
:1033F000FF300178002915D0059E0B990025755FD7
:103400006D31FF31A5420BDD0D681E1C01350D60CD
:103410003E363678B54205D1002505700D6001E0D5
:10342000002008600B997531FF3109780029B7D069
:103430008049069F0968059DC8194030067800201C
:10344000285E002E05D01D1C3E352D7876B2AE428A
:103450001ADC642545435443A5420FDB1A1C443251
:103460001278099F049E7A4334889211944205DBB6
:103470009B6C089C63439B1198421BDA049D059E3C
:1034800000232B8033800CE034331B786C4D5C437D
:103490006843624390420DDA049F059C00233B8001
:1034A0002380069A143292008A18B03153600B6858
:1034B000013B0B60069D049E013D0E3E0695049661
:1034C00043E75C4B00221B680D9DB0331A605A4BDA
:1034D0001B681B6A5C1E0494049EE2000E24744365
:1034E000AF18079D0C2272432C193F330B9D0C9E85
:1034F0005B00EB18B218C23306920993049E4D4D3F
:10350000013600D120E20426A35F494A002B00D1F6
:10351000DBE1049E2D681268A9190B1C4033187852
:103520003E320130C0B21870127840B2961DB042DF
:1035300001DD04321A7040268E57012E00DCACE10A
:10354000B01C0321FCF72AFE0891022E38D13A4B19
:1035500000203A5E1E6802217B5E69692D69306831
:103560006D10551B76688C46E917013E6D183602C2
:103570004D40761B7F2E0ADD65466910591ACE171D
:103580000138891900027140401A7F280DDC0021A2
:10359000605E801A0222A15EC91A04F01FFD0B288A
:1035A00003D93B8823807B8863800323013B0FD3AF
:1035B0002188069D5A00A9526188AA18D180F5E792
:1035C000089E069D3A887300EB181A807A88DA8084
:1035D000184B049E1B680221655E9B1940331B78C3
:1035E0000020265E5BB20793032B00DC4BE1089AB8
:1035F00006985300C3181988101C0C91043003213D
:103600000593FCF7CBFD069A4B00D3181888DB888E
:10361000059A0D93079B8446D188042B12D1002272
:10362000B85E301AC317C01858400226BB5F13E0BB
:10363000D00C002004030020FC020020D40C002049
:1036400010270000099B0020185E301AC617801949
:103650007040099E1423F35EED1AEA17AD18554029
:1036600023884019099D049E2B806388C74AAB823A
:103670000B9DAB193933FF331D78002D06D015682B
:1036800062352D88A84208DC002505E01568643500
:103690002D88A84201DB01251D70059D1B780026A1
:1036A000AD5F0A95059D0626AD5F0F95002B52D1A3
:1036B00026880A9935B212686D1AE9170792131C09
:1036C0006A184A405E331B880A9262880F9D9446AE
:1036D00012B2521BD5175119503E6940B5B2A626F9
:1036E0003601B54203D90A9E8E4200DD7823664634
:1036F0005A3EB6B2B446A64EB44503D90A9A8A4297
:1037000000DA7823079A80216032128800924A00FA
:1037100003F06AFC059D061C0023E15E0020285E84
:103720000B1ADD175A19059B6A4094460222A55EC2
:1037300006229A5EAD1AEA17AD1855406544321C50
:103740002B1C05F019FB059B20800222A15E0620A0
:10375000185E321C75E00C9E6046B5B22B1A1BB287
:10376000DA0FD3180D9A89B25B1007938B1A1BB22C
:10377000DE0FF3180020265E5B1005960220265E01
:103780000C930D96079EAB19059D1BB2EB1ADE1725
:103790000C9D9B19734049190D9E09B2711AC817E7
:1037A000091841405B180025802B01DD1D1C803D60
:1037B000089803210530FCF7F1FC744B069E1B684A
:1037C000490071181A1C03915B3216780132127885
:1037D0000A9894460E99039A41430020105E62466F
:1037E000704309180598424388181A1C5A321278F7
:1037F0000E9910410A900F985D33414303981B784E
:1038000008910621415E0D984E4308998E19614634
:10381000414376180C99164159431141761807997E
:103820004B4313411A1C0A9B059998188022D20019
:103830002B1C05F0A1FA80222080D2000220215EFC
:10384000301C2B1C05F098FA504D60802B68042129
:10385000785E0422A15E04333E269A5F431ADE1787
:103860009B19734005F088FA2B68A080F888E188DE
:1038700004333E255A5F431ADE179B19734005F047
:103880007BFAE08009E00021785E36187610268009
:103890000222B85E2D186D1065803E4B3B491A68B8
:1038A000049D0968531940203E3118560978884212
:1038B00003DC01225242A28003E0B03211680131E0
:1038C0001160483300229A7032E02E680499126821
:1038D00070180592021C403200269657B446059E89
:1038E0003E363678B4451CDD0426B95F00291FD06A
:1038F000483086780136F6B28670059976B23F3147
:1039000009788E4213DC3B8823807B886380BB88E8
:10391000A380FB88E3802B68B0331A6801321A60F9
:1039200006E00B9D049E1370AA193932FF32137002
:10393000049D069E013D0495099D0C3E023D083FF5
:103940000E3C06960995D9E52B680022B8331A601B
:10395000114B1B681C69013C611C00D199E028686F
:1039600062008218161C8636378804970499074F20
:1039700000291AD09023995E8C4604990BB26146B7
:1039800000290BDC39683C310AE0C046D00C00202D
:103990004C0D000004030020FC02002039683D317A
:1039A00009788B4201DA00233380318803190693AA
:1039B00000293FD098330493987884467F2804D018
:1039C00001239C44049863468370069B98339B783C
:1039D0005BB2022B13DD90320023D05E3A6809B24D
:1039E00094460422944463463E229B5E0493431A09
:1039F000DA179B185340049A05F0BEF930802B6803
:103A000002201A19111C983108563968403109787A
:103A1000884207DC211C403149005B1801214942E2
:103A2000D98003E0B8331968013119609832002356
:103A3000D37190E73F68069B059798330227DF57BD
:103A400004974027BC46059FBC4467463F78BC4668
:103A5000049F674518DD90321288002A00D17AE76A
:103A6000DF79BC460127BC446746FFB2DF717FB2F5
:103A7000BC46059F41373F78BC4508DC3280B830F2
:103A800003680133036066E7286803199833997067
:103A900061E711B0F0BDC04638B5051C0C1C03F041
:103AA000D3F8012803D0281C211CFFF713FC38BDD4
:103AB000F0B585B00C1C151C01930390FCF7D6FCE7
:103AC000FCF7E0FC00F0BAFE384E394933680220BA
:103AD0001B692A1C4B700423CB705A230B7103F013
:103AE000B7F9231C2A3300221A7080231B06636354
:103AF000304BA36333681A692F4B19682F4B1B682F
:103B000002932F4B18688446013A43D3019F9600D5
:103B1000BF59A859C31B676B9F4200DA6363A76B49
:103B20009F4200DDA3630B78002B06D0029FBB18D9
:103B3000BA33FF331B78584380110A9FBB591B0CC3
:103B40001B1A11D4487B834202DB01206646307188
:103B50000F200856834212DB2768181A3818206095
:103B60006069013060610AE011200856834206DC7A
:103B7000A668181A3018A060A0690130A061039FE0
:103B800050003B52201C2A300678B34200DA331C26
:103B90000370B9E7084B2A341B6822781B7A00208F
:103BA0009A424041C0B205B0F0BDC046FC020020C0
:103BB0000C010020FFFFFF7FC40C0020C80C002078
:103BC00000030020F0B595B013930C1C0C921290DA
:103BD000FCF74CFCFCF756FC964B1B68F0331B784B
:103BE000002B06D1944B1B681D7A0A950A27DE5FCD
:103BF00005E0924B1B689D780A950427DE5F904D87
:103C000090492B680C9F5A6818684A709A68042378
:103C10008A70013292000870CB70BA1851230220CA
:103C20000B71099603F014F90023A21D8248D37783
:103C30000232D3777F262968621D05688248D677CD
:103C4000E21DD67700684A680F908048013AD2B2E8
:103C500000680E920A6810907D4E8020013A00069E
:103C600052B2AC460896079006930493002A00DAF5
:103C7000A3E00E9F50007BB20B90002B00DA9AE07D
:103C80008E68551C75430135ED18A8000C9F0195F1
:103C9000139D9E00C059AE59079F861BB74200DA9C
:103CA0000796089DB54200DD0896664637784E684F
:103CB000002F09D0351C55430F9FFF187F5D109DC5
:103CC0007843AD686843001356431A9F9E19B600A7
:103CD000F659129F360C301A019E7500E85366465D
:103CE000002854DB0F257557A84212DB2768451BB7
:103CF0007D1925606569102701356561F757F67BE9
:103D0000656876B2B84201DC861B00E0BE1BAE19C6
:103D10006660E568A84204DDDEB2D7B211960D9761
:103D2000E0606646357BA8421BDB251C08351F2654
:103D3000AE579E4200DAEB77E51D1F26AE579E4236
:103D400000DDEB77A51D1F26AE57964200DAEA7715
:103D5000651D1F26AE57964200DDEA77069F0137A4
:103D6000069785B21C9F5E000295BD5B029F7D1980
:103D70002F1C1C9DAF531B9D0B9EAF5B029EF51924
:103D80001B9F0B9EBD53049F3F18049711E0112504
:103D90007557A84206DCA768451B7D19A560A56973
:103DA0000135A5612569A84200DA2061049E361A12
:103DB0000496013B61E7013A58E7214B04981B68E0
:103DC0000125D968FCF794F922497C235B42221C27
:103DD000CB70E06176231C32281C0B714D7003F010
:103DE00037F8069FA21D27621F21631D51561F220F
:103DF0009A56164B1B68914201DB1D7101E00022AF
:103E00001A71079D089EE562119F231C0D9D2833A2
:103E100026631F705D70E6680A9F0120BE4205DAC6
:103E20002369099DD80FEA179D425041C0B215B0D1
:103E3000F0BDC04600000020C40C0020CC0C0020C7
:103E4000FC020020BC030020C80C0020000300205E
:103E5000FFFFFF7F0C01002007B5104B2A301B68C5
:103E60000278987C0968424392098A4200DA0A1C67
:103E7000997B4A43921101921B7B9A4200DA01938B
:103E8000074901234B707C235B42CB7006201F2324
:103E900001AA0B7102F0DCFF01980EBDC40C0020DA
:103EA0000C010020F0B593B01C1C18AB1B780B92D2
:103EB000119309910E90FCF7EBFA079003F0D0F8FC
:103EC000099E7F223272B272079A0023FC3273720B
:103ED000F3721360231C28331B78051C1A1F042A55
:103EE0002AD8221C2932127852B2032A26DCE16831
:103EF00062681D290EDC2668B01A31280ADC606968
:103F0000142807DD079B0122F9331A7014232B7341
:103F100064230FE0132911DC21688A1A042A0DDCBE
:103F200062690A2A0ADD079B0122F9331A701423F9
:103F30002B7363231A1CA0E0002B10D0B74A59B290
:103F4000126850680138814209D0211C2931097852
:103F5000002904D0126849B2013A914208D166683A
:103F60001E2E05DD2068502802DD616914291CDC45
:103F70005BB2AA49032B04DD0A685268043A9342F3
:103F80001DDB221C2932127852B2022A04DD096894
:103F9000096803398A4210DB6268962A0DDD2668BB
:103FA000FA2E0ADD6069142807DD079B0122F83329
:103FB0001A7014232B735A23BCE7022B0FDD974A88
:103FC00011684A68033A934209DA221C29321278AE
:103FD00052B2022A03DD096803398A420ADB6168AA
:103FE000DC2907DD2668A0225200964202DD6069C6
:103FF000142832DC042B0FDD884A12685168053919
:104000008B4209DA231C29331B785BB2042B03DDB6
:104010001268053A934213DB616887235B0099427B
:104020000EDD7F4B22689A420ADD63691E2B07DD95
:10403000079B0122F8331A7014232B73462379E768
:104040006668C8235B009E420FDD2068FA239B0050
:1040500098420ADD6169322907DD079B0122F833A6
:104060001A7014232B733C2364E76E4B08221B68E1
:104070009A565B7A92B25BB29BB26A4F0321386860
:1040800020264156711A022686574900891B49107D
:1040900016B20A96C9B21EB2069605910422815E36
:1040A0000623C25E00960A9B606802F09DFF5B4B90
:1040B00080021E683168FCF71BF8079B0890F833F4
:1040C0001B78012B04D0079BF9331B78012B10D1EF
:1040D000E3680E2B09DC079A07232B73F8320023C1
:1040E0001370079AF932137003E01D2B01DC0F23C4
:1040F0002B733B6871681A78002A6CD01A9D881C53
:10410000EA8840006A802A892E1C2A80021FAA1889
:1041100015883552901E0088D0805878002803D02A
:10412000059D6FB27F003BE0023A01393BD35688D0
:10413000D588032018567519059E4543178870B217
:104140001689BE1946430220AD1918569688704349
:104150002818089D8011684300141081E4E70325A6
:104160005D575088D6886D00AC46051CB04200D221
:10417000351CADB266466E431589B4461688301CB0
:10418000AE4200D2281C02255D5780B29688784343
:104190007543604445190898AD1145432D141581A8
:1041A000023A0139DBD2069D06201A5E0426995F89
:1041B000606800950A9B02F017FF184B80021D688B
:1041C0006968FBF795FF174B08901B6829681A78F8
:1041D000002A0DD16CE04A1C1A9D5200AA18013920
:1041E000E1D31088089E023A70430014D080F6E7AD
:1041F000199D881CEA8840006A802A892E1C2A8022
:10420000021FAA1815883552901E0088D080587851
:10421000002809D0059D6FB27F0041E0FC0200201C
:1042200026020000D80C0020023A01393BD3568800
:10423000D588032018567519059E4543178870B216
:104240001689BE1946430220AD1918569688704348
:104250002818089D8011684300141081E4E70325A5
:104260005D575088D6886D00AC46051CB04200D220
:10427000351CADB266466E431589B4461688301CAF
:10428000AE4200D2281C02255D5780B29688784342
:104290007543604445190898AD1145432D141581A7
:1042A000023A0139DBD21A7B002A0ED1089222E0B1
:1042B0004A1C199D5200AA180139F4D31088089E8F
:1042C000023A70430014D080F6E70E22995E6068CF
:1042D0000025089588420EDD10269A5F9B7C5BB214
:1042E00000932B1C02F080FE10231B1A9B000F93DF
:1042F00001230D9008936B4B0026186805960568FE
:104300000A96AC46614643684F1E00D2B2E0199D42
:104310007A00AA181092013B00D2A9E0089E816899
:104320006246002E42D04A43D618069201360B9AB6
:104330007600955B03962AB2D243D2172A405D1CC1
:104340000C95BD1C4D430C9E12B2761975000B9E48
:10435000AE5F0496964200DA0492069E0C9D711A96
:1043600069180B9E4900895F914200DA111C049D77
:10437000691806910B9D03996E180221755E111E36
:10438000A94200DA291C069D023E69180691002503
:10439000715F161E8E4200DA0E1C06998D190D9E55
:1043A00075430F9E7243AA18921105E051435918A4
:1043B00001310B9D49004A5F0799F83109780029BE
:1043C00016D001680339B94212DCE6681D2E0FDCF5
:1043D000111C0839152903D80599013189B20591B5
:1043E000059D29B2112903DD0799012574310D704E
:1043F000016801398F4206D1072A04DD0799FC3193
:104400000D6801350D601A9E590071180989109DBB
:10441000521A119E2989521AB24218DD099D0B21A8
:104420006956994200DAEB72099E0A217156994247
:1044300000DDB372099D09216956B94200DA6F7235
:10444000099E08217156B94203DD377201E0002A46
:1044500004DD0A99914202DA0A9200E000228168A2
:1044600065466943591801310E9E89008A5152E709
:10447000BC4647E70A9A099D0B492A60826806688C
:104480000E9D4B708A707C2301325B429200CB7090
:10449000AA18832305200E700B7102F0D9FC13B00B
:1044A000F0BDC046FC020020BC03002030B5002354
:1044B0000C7D1A1CCD5CA54201D00132D2B2013371
:1044C000132BF7D1022A14D8012303700B7D062287
:1044D000191C914301290CD1032B0CD003D81420B3
:1044E000012B09D005E01620052B05D01720072B3E
:1044F00002D0002000E0152030BD0023012203700F
:1045000043700371427182710A7873B50272CA7C7A
:10451000009342720A7D01938272CA5C6D46013A31
:10452000AC5C01330134AC54142BF6D100236E463D
:10453000F25CC479944200D2C2710133082BF6D1E7
:104540004D1D0A1C002456781378F31A032B01DD45
:10455000083B02E01E1D00DA08339E1C022E01D922
:1045600000264671DE179B1973400132E418AA42F7
:10457000E9D1002C00D144710A1C0C1C0E321234FB
:1045800055781378EB1A032B01DD083B02E01D1D63
:1045900000DA0833022B01D9002383710132A242D1
:1045A000EED10A1C55781378EB1A032B01DD083B7A
:1045B00002E01E1D00DA08339D1E012D01D91D1DCC
:1045C00001D1012545700233022B01D9012303706B
:1045D0000132A242E6D10B785A1E012A01D9082BDA
:1045E00001D10123037173BDF7B5827A031C0092D8
:1045F0000020042A07D15A79012A04D19879013878
:104600004242504100011A78012A0AD11A79012A3E
:1046100020D10A780F2A1DD94A78082A1AD12022D7
:1046200017E04A78DD79D61F012E01D9052A0BD172
:104630001A79012A01D180221043062D0AD81A7A4C
:10464000032A07D0012204E0062D03D8022A01D84C
:1046500040221043009A013A012A31D85A7A022A9C
:1046600006DDD70F0025042696427D41EDB209E014
:104670000326B61A0196019F0125F60F0024BD42BC
:104680007441E5B2002D04D00D781B2D01D9082509
:104690002843009C012C13D1062A11D94A78022AFA
:1046A00001D0052A0CD15A78012A01D1022306E053
:1046B0001A7A082A04D0DB79062B01D9042318437F
:1046C000FEBD00003C4BF0B51C5C80001B18DA6896
:1046D0006300EDB0D3180593231C6343059E5B0074
:1046E000F31806930023A34211DA0E78DF00BE19F7
:1046F000324F5D00F619069F555B7600F65B980019
:104700006D42AD1B20306E4685510133EBE70DAF96
:10471000013102976CAE670004910196079700255E
:10472000A54228DA059E6F00F719029E0020143E6C
:104730000390002803D138883168081A04E03988CA
:104740003268511A04F07CFE039B079901330393EE
:1047500004367F18A342ECDB049EE9003278174F41
:104760008A18D219069E5200925B029FAB00801AF3
:10477000F8500135D4E7049F029E01370497019F4A
:1047800014360296BE42CAD10020051CA54211DA99
:10479000AB00002805D108A8C3187D33FF33186883
:1047A00006E008A9CB187D33FF33196804F048FEF2
:1047B0000135EBE76DB0F0BD70970000FFFFFF7FA4
:1047C000F0B587B00C1C0B22061C002103A804F0D6
:1047D00077FF03A8311CFFF790FE211C03A8FFF709
:1047E00003FF114D0123019000245F420123019A30
:1047F000A34013402341012B01D02B1C07E0201CB8
:10480000311CFFF75FFF031C8542F6DA271C0134D9
:104810000A2C01D01D1CE9E7044A0020934201DB69
:10482000781CC0B207B0F0BD806967FF6135FFFF3B
:10483000014B18607047C046B80C0020014B186847
:104840007047C046B80C0020014B18607047C04646
:10485000B40C0020014B18687047C046B40C00200F
:10486000014B18607047C046B00C0020014B18681F
:104870007047C046B00C0020014B18687047C04616
:10488000040100208D23013B002B01D0C046FAE734
:10489000044B10221B78DBB21807C00F13401843DB
:1048A0007047C0462B0000500F4BF7B518261E70FE
:1048B0000E4BA0271E70FFF7E5FFFF050B4B01AC69
:1048C00000252C3760701D703E70FFF7DBFF064B34
:1048D00020703D701D7023786278181C5040400095
:1048E00013400343D8B2FEBD2A0000502D000050F3
:1048F00010B50D4B00201B78AA2B12D10B4B1C7846
:104900000B4B64B218780B4B40B219780A4B201845
:104910001A780A4B49B21B7840188018C01A4342D3
:104920005841C0B210BDC046500002005100020004
:104930005200020053000200540002005500020021
:104940008023DB020022188059809A80C046024BE7
:10495000188880B27047C04606000400154BC0227C
:10496000920098581449014099509958FF2081436A
:10497000402001439950985810490140802000047C
:1049800001439950985880210002000A090601430A
:10499000995002221A6001221A60082104221A602A
:1049A0001960FC3300215960054B19690A431A61EB
:1049B0007047C04600E100E0FF00FFFFFFFF00FF7F
:1049C00000ED00E013B5094A042413780021DBB29E
:1049D0001C4301910198F421FF31884205DC1370DA
:1049E000C046147001990131F3E713BD0D0000506A
:1049F00013B500220192A022D205D06BC021C900BC
:104A00000143D16301AB1878032188430121084396
:104A10000C24A043042420433024A043102420432A
:104A20003F24204040242043187098780F24A0434E
:104A3000072420439870D8780143D970019B936173
:104A400013BD00000122A023DB051040020603492C
:104A500098690840104398617047C046FFFFFFFE09
:104A600082B00022019201301F2201AB1040C9B276
:104A70001870481C023110400A4092005870DA70D9
:104A8000019AA023DB05DA61196A024A0A401A6218
:104A900002B07047FFCFFFFF0002064B000A01384B
:104AA000002258609A6005221A60C0461A68D10335
:104AB000FCD5704710E000E0F0B5534F85B03B687F
:104AC0001A1C543215780232596D127857331E78F9
:104AD0000F231407994312092D0701922D0F0B1C68
:104AE00080222B4352001343484A0395484D1340FC
:104AF000484A2B4048491340240F0B400199220497
:104B000013430A0545493607360F0B4000961343F9
:104B10003206434E029433401343424AA024E40534
:104B20001340E360FFF74EFF3B68E26855331B78A4
:104B30001540DB069B0FDB021D43E560E268802326
:104B40009B001343E360E26880239B011343E3600F
:104B5000029C039DFFF7CCFE002813D0324F882023
:104B600039781E34C9B2FBF7C3FA39784443C9B265
:104B70008820FBF7BDFA0F3545431E3C00230F3D4F
:104B80009C4203DB231E0F2B00DD0F230F229542D7
:104B900000DD151CA024E4051F491A40E368120437
:104BA0000B401343E360EB43E268DB171D400F2328
:104BB0009A431D401543E560E368F0229343802249
:104BC0001343E360E368154A18481340E360E36861
:104BD0003340E360FFF760FFE26880235B05134327
:104BE000E3600099E2680B0616401E43E660104839
:104BF000FFF752FF019B09491A05E3680B40134375
:104C0000E36005B0F0BDC046B40C0020FFF9FFFF23
:104C1000FFE7FFFFFFDFFFFFFFFFF0FFFFFF0FFFDB
:104C2000FFFFFFF0FFFFFFEF54000200FF0F000047
:104C3000FF6F0000064A074B126801209432126889
:104C400019789040021C0A43D2B21A707047C046CD
:104C500004010020290000500549064B09681A7814
:104C6000943109680120884082431A707047C04619
:104C70000401002029000050044B1878044B1B68E5
:104C800094331B68184101231840704729000050D5
:104C900004010020044B82B0019001AA1880927890
:104CA0009A7002B07047C0462400005007B500F06B
:104CB000DBFD064B019001AA188092789A70044B94
:104CC00000221A70034B0122DA7707BD240000503E
:104CD0009C0C002008000050034B00221A70034B6C
:104CE0000122DA777047C0469C0C00200800005073
:104CF00072B6084B1B5C002B03D1C04662B630BFB6
:104D0000F6E762B6A023DB059968034A0A409A6079
:104D10007047C0469C0C0020FFFFF9FF72B6074B9E
:104D20001B5C002B02D1C04662B6F7E762B6A02337
:104D3000DB059968024A0A409A6070479C0C002083
:104D4000FFFFF9FFA023DB055A680121120E586806
:104D50009143034A090602400A435A607047C0461D
:104D6000FFFFFFFE08B5074B1B681A1C5C32127868
:104D70005D331B785200013250439940FBF7B8F97C
:104D800008BDC046B40C002008B5044B1B685F3357
:104D9000197849000131FFF7E5FF08BDB40C002088
:104DA00008B5A0230120DB055870FFF7A1FFFFF72E
:104DB000C9FF08BDF7B5A026041CF605042804D1D8
:104DC000524B1B68DF6E1B6F21E0514B1B689F6CC1
:104DD000DB6C7361FBF75CFBE7300378002B17D0CB
:104DE00004F008FC04F06EFB01797F221140890475
:104DF000019171690B1C47490B400199194371617D
:104E00004179444B0A40716992040B40134373612A
:104E1000A023DB051F611E691F231E40FFF768FDED
:104E200000280AD03C4B882019780436C9B2FBF719
:104E30005FF946430023043E03D4331E1F2B00DDDD
:104E40001F23A022D20510691F210B408843034372
:104E50001361022C16D007DC002C13D0012C2DD1AD
:104E60002B4B1D685E3529E0042C07D023DB052C75
:104E700024D1264B00241D6877351FE0234B1D6885
:104E800074351BE0FBF704FB031CCC331B78002BB1
:104E900003D01E4B1D68453510E0E7300378002B2A
:104EA00005D004F0A7FB04F00DFB851D06E0184BB0
:104EB0001D685B3502E0164B1D686135A023DB05DC
:104EC000596928783F22104091430143596168781D
:104ED0001F215D6908401149C00229400143596101
:104EE0000F49640009680C19211C5331087859686E
:104EF00010409143014359605434217858680A4066
:104F00001102084A02400A435A60F7BDB80C00205B
:104F1000B40C0020FFFF03FE54000200FF07FFFF58
:104F200004010020FFC0FFFF214BF7B51A68214B99
:104F30001B685E331B785B069B0E0193517E00233A
:104F40008D005519581E5B18002B25D053181B18BF
:104F50009B7E8024D3185E78A023DB055F68E40382
:104F60003C435C60019CB606240400945F68B60E66
:104F7000BC46114F64462740009C27435F60C046F3
:104F800024367600F65A84002C1966675E680B4C4E
:104F900034405C60031CD5E7537E094974324B7082
:104FA0000423CB700F20B0230B7101F051FFF7BD2C
:104FB00004010020B40C0020FFFFC0FFFFFFBFFF73
:104FC0000C010020F7B5FFF7AFFF114B00241D685F
:104FD0006E7E731C9B005B420093B300EB18019341
:104FE000009B043C9C4207D0019B01211F19786F54
:104FF000FFF7B8FE7867F3E706492A1C0423CB7055
:105000007432B0230F204E700B7101F021FFF7BDF9
:10501000040100200C010020044B00225A70A02340
:10502000DB055A7001221A707047C0469C0C0020A4
:10503000A023DB059968064A0A40802189020A43B9
:105040009A60044A0021917001229A707047C0460C
:10505000FFFFF9FF9C0C0020014B1B68D86E7047C6
:1050600004010020014B1B68D86670470401002032
:10507000A023DB059868C0B2704730B5A023DB05DC
:105080009B68DBB283420ED001DA013300E0013BC2
:10509000A022D2059568FF211C1C8D430C40291CC1
:1050A00021439160EEE730BDA023DB0599688022A3
:1050B00052020A439A609968094A0A409A609A68BB
:1050C000120112099A60D968064A0A40DA60D96862
:1050D000054A0A40DA60D968044A0A40DA60704733
:1050E000FFFFFFF0FFFEFFFFFFDFFFFFFFFFFFEF10
:1050F0001B4B10B51A680121131C52331878A023DA
:10510000DB059C6808401749000421400143996071
:10511000533210789C68144900070009214001436C
:10512000996011789A6809091201090712090A435E
:105130009A60D968802252000A43DA60D9688022D6
:1051400092010A43DA60D968802252050A43FA20A4
:10515000DA60800000F0ACFBFFF79EFC10BDC0469B
:10516000B40C0020FFFFFEFFFFFFFFF008B500209A
:10517000FFF7BEFD08BD0000034B1B685C331878C9
:10518000400001307047C046B40C0020024B1B6841
:105190005D3318787047C046B40C00200048704753
:1051A0000010005000487047002000500048704731
:1051B00000400050064B1B685879064B02301B68B4
:1051C00042331B785843044B8000C0187047C046D8
:1051D000B80C00200401002004400050F7B5194B22
:1051E000051C1C68A3795E1E10D36279013A0BD3AB
:1051F0006179501C0231594341181348890009183C
:105200000868E8400860F1E7331CECE7FFF7D2FFDD
:10521000A37A002201339C466346013B9C460FD390
:10522000617A96000191861900230199994205D06F
:105230009F00F1590133E940F151F6E75218EBE7CD
:10524000F7BDC046B80C002000400050064B1B685C
:105250005879064B02301B684E331B785843044B79
:105260008000C0187047C046B80C00200401002020
:1052700004400050074B1B68DA795879064B02301E
:105280001B68013246331B785843044B10188000CA
:10529000C0187047B80C00200401002000400050E6
:1052A00070B53F4B1D682A7853B2042B18D13D4B83
:1052B00019680B1C76331E7802235D1E6FD34A7962
:1052C000013A0BD34879541C023058432018364C0D
:1052D000800000190468F4400460F1E72B1CECE73F
:1052E000002A45D0022B21D1FBF7D2F8CC3003782D
:1052F0002C4C002B02D02368473302E02B4B1B6859
:105300005D331878FFF76AFF2568EC79002C2FD001
:10531000FFF7B0FF061C013C2AD3697A201CFAF77C
:105320003DFF89008A59A300F250F4E7032B03D113
:105330001E4B1B68633318E0012B11D1FFF786FF6A
:10534000184B061C1B685C79013C11D32B192233C6
:105350001B789B009859FFF717FDA300F050F3E767
:10536000052B05D10F4B1B6879331878FFF736FFF3
:105370000E4B1B685A331B78002B10D0094B1A6850
:105380005379013B0BD35079947902306043591C17
:10539000091805488900091800200860F1E770BD68
:1053A00004010020B80C002000400050B40C002084
:1053B00008B5A0230120DB055870FFF799FCFFF723
:1053C000C1FCFFF76DFF08BD70B5041C104E114DF8
:1053D00011D10120FFF7EEFC336801221A70A023DF
:1053E000DB056C705C701A70FFF7E2FFFFF7AAFC38
:1053F000FFF7E8FD0224201CFFF7DCFC33680022E5
:105400001C70A023DB056A705A7001221A7070BDEF
:10541000040100209C0C002008B5FFF7D5FFFFF722
:10542000C7FF08BD10B5A023DB051C6A0005064AAE
:10543000000D010422400A431A621A6A120B120379
:105440001043186210BDC046FFFF00F073B5164B45
:10545000A0221B68D2059168196D503391601C78A9
:10546000FFF746FA114D002810D0114B114A1B7856
:1054700012782E6852B25BB20092201C1021D12209
:1054800001F0B2FD2B6830671B6FE418002C01DAC5
:10549000002402E0FF2C00DDFF242B68E0B2DC6674
:1054A000FFF7EBFD73BDC046B40C002004010020E3
:1054B000530002005200020008B5002801D0012864
:1054C00001D100F0EFFDFFF7C1FFFFF7F5FAFFF79D
:1054D0008FFA08BD70B51F4B0D211B68A0B0DA7A9A
:1054E00000230C3AD2B291425B410321C91AA02396
:1054F000DB0558693F2210405C688022D2032243BA
:105500005A60421EA023D2B2DB05FF2A11D05E688A
:105510003F25114C15402D0434402C435C60C0469F
:105520000C1C243464001C5B6D465300EC52013AA1
:10553000E8E75968094A0A4009495A600223487055
:10554000CB700320B3236A460B7101F081FC20B0BD
:1055500070BDC046B80C0020FFFFC0FFFFFFBFFFBB
:105560000C010020F7B5041C02F078F8124B1A6801
:1055700000235068411C0191019D16689D420CDB7F
:10558000976801367E4399008C469E190021654636
:10559000B600615101333151EEE701239E420ADB2F
:1055A000956800215D43AF002D180135AD003951DC
:1055B00001332951F2E7F7BDFC020020044B0549F5
:1055C00000221A6059609A6005221A607047C0462E
:1055D00010E000E0FFFFFF0010B5A023DB059C6892
:1055E00099680B4BC9B21B68E4031B6FE40F591A8F
:1055F000FF31E62359430134064BA040C918041C6F
:105600000548FAF775FDC1B2201CFAF771FD10BD0F
:10561000040100205C5D000040420F00014B0022AD
:105620001A60704710E000E013B50B4C0B48A368FC
:10563000C01A0193FFF7D0FF094901234B700423DF
:105640000190CB7000206F2301AA0B7101F000FCC8
:1056500000230198236016BD10E000E0FFFFFF006B
:105660000C01002010B5041CFFF7A8FF201CFFF759
:10567000ABFEA023DB0501205870FFF74FFBFFF7BF
:1056800061FBFFF70DFEFFF7CFFF10BDF7B5234815
:1056900000F00EF9FFF700FA214F0025214E224CB1
:1056A000B7421FD28036F31B2026832B00DC9E10CE
:1056B0000123667000203A1C211CB610E370207193
:1056C00001F0C6FB3B1C321C013A08D3002D04D16B
:1056D00016491868884200D01D1C0433F4E7B60050
:1056E000BF19DBE70E4904226B1A01270193E27010
:1056F000A723211C01AA002067702371843601F0C2
:10570000A7FB0423751BE3700020A823211C01AA1A
:1057100001956770237101F09BFBF7BD801A0600AD
:10572000E00C0020801B00200C010020CDCDCDCD51
:10573000014B1B68587E70470401002070B5051CA2
:10574000FFF784FD094B1C68637E9A00AD180022A8
:10575000511ED218002A08D0E2185218927E9200E8
:1057600016588A00AE500A1CF2E770BD04010020F2
:1057700030B50A4B1B685A7E94001C195300C018A0
:1057800000230133D11A013106D09D00651B590059
:105790006D6F49424552F4E730BDC0460401002018
:1057A000F8B50C1C051CFFF761F8144908688379EB
:1057B000013B11D30E687279013AF9D30E68707902
:1057C0000F4E584336688018F61828186036077848
:1057D0003679BE190670EFE70B68DB79013B08D319
:1057E000074AE15C1268D218783212798A18E254BA
:1057F000F4E7281C211C00F0A7FEF8BDB80C00201F
:10580000B40C0020134BF7B51C686946E26800AF82
:10581000131C0E33DB08DB00C91A23698D460E33D7
:10582000DB08DB00C91A0C4B6D461E688D4679609B
:10583000281C311C03F002FFBA23FF33F118226940
:10584000786803F0FBFE281C7968FFF7A9FFBD46C6
:10585000F7BDC046FC020020B00C0020A023DB05F1
:1058600018690006400F704738B5A023DB0599681A
:105870009D680C4B041C1B680B481B6FED03C91A79
:10588000C943E623C9B25943084BED0FC918FAF7CB
:105890002FFC054B01355843211C2841FAF728FC01
:1058A00038BDC0460401002040420F005C5D00008E
:1058B00038B5A023DB0599689C680A4B051C1B685A
:1058C00009481B6FE403C91AC943E623C9B2594307
:1058D000064BE40FC918FAF70BFC6843013420416A
:1058E00038BDC0460401002040420F005C5D00004E
:1058F00008B5002807D0481006380123132900DC1A
:105900000023C01806E00B2900DD0E39081C032116
:10591000FAF7EEFB08BD0000F0B5C04BA9B01B685C
:1059200000250293DB7A071C0C3B281CDBB20D22FE
:105930009A426841BA4B03261B68361A03963E68A2
:10594000019347331E70019BC4B278684A330494B4
:105950000DAC291C18706C22201C03F0B1FEB14B59
:105960000B951A680C95231C62CA62C323CA23C311
:1059700043CA43C3012124234B43221CE31861CAB9
:1059800061C361CA61C361CA61C3039D0131A94298
:10599000F1DB00260396341C029D6B799C424CDAA5
:1059A000029D04982B19DD7A0BAE291CFFF7A0FF8E
:1059B000365C2422311C5143B446661C06960B18F3
:1059C0000DAEF6180596059B069E1E711F2D08DC70
:1059D0000DAE71180123CA68AB401D1C1543CD6084
:1059E00011E00BAE335C0DA95A43203D01238A1808
:1059F000AB401D1C137E9906890E0D433F210D40BF
:105A00008B431D431576019D3F23061C2A191E401A
:105A1000059665465678A901059D9E4335431D4070
:105A2000634629430133039E5170DBB20BAA135422
:105A30009E4200DA03930134AEE7019B039E493393
:105A400000241E700294754B029C1B689879844652
:105A5000844200DBD8E0029D5B191A1DD67F714A93
:105A6000126804925A3212780592059800229042E8
:105A700005D0614601398D4201DA0533DA7F012311
:105A8000301C191C20381C1CB1408440201C06917D
:105A90003F210840111C20391D1C8B40DBB20993AB
:105AA000039B2421013B4B430790039C28A895406E
:105AB000C31808955C3B0194019D002D41D0019DC8
:105AC0002421013D69430DA8411801957C68CD78DA
:105AD0001F200440854325430020CD7018601831F5
